S01800006C63645F7370656369616C5F636861722E737265639C
S113000033C000004CC000004AC0000048C00000DB
S113001046C0000044C0000042C0000040C00000D0
S11300203EC000003CC000003AC0000038C00000E0
S113003036C0000034C0000032C0000030C00000F0
S11300402EC000002CC000002AC0000028C0000000
S113005026C0000024C0000022C0000020C0000010
S11300601EC000001CC0000011241FBECFEFD8E04A
S1130070DEBFCDBF12E0A0E0B1E0ECEBFBE002C0DC
S113008005900D92A431B107D9F722E0A4E1B2E0C2
S113009001C01D92A431B207E1F77AD58DC5B0CF66
S11300A084B1876084B98AB1806F8AB985B1887F49
S11300B085B98BB18F708BB908958FE99FE0019753
S11300C0F1F700C0000028982A9880E38BB9299A98
S11300D0EFE1FEE43197F1F700C000002998EFE961
S11300E0FFE03197F1F700C0000028982A988BB9F7
S11300F0299AEFE1FEE43197F1F700C00000299856
S1130100EFE9FFE03197F1F700C0000028982A9842
S11301108BB9299A8FE19EE40197F1F700C00000A2
S11301202998EFE9FFE03197F1F700C00000289823
S11301302A9880E28BB9299A8FE19EE40197F1F71E
S113014000C00000299808959BB19F709BB99BB192
S1130150282F207F922B9BB928982A98299AEFE17F
S1130160FEE43197F1F700C0000029989BB19F701D
S11301709BB99BB18295807F892B8BB928982A984B
S1130180299A8FE19EE40197F1F700C000002998B5
S1130190089593DF8FE99FE00197F1F700C0000015
S11301A088E2D2DF81E0D0DF86E0CEDF8EE0CCDFF4
S11301B080E8CACF089580E8C7CF0895823069F0F7
S11301C018F4813031F00895833059F0843069F0A7
S11301D008958FE7860FB8CF08958FEB860FB4CFBD
S11301E0089583E9860FB0CF089583ED860FACCFD1
S11301F0089581E0A9CF0895CF93C42FDFDF8BB199
S11302008F708BB98BB19C2F907F892B8BB9289AD7
S11302102A98299A8FE19EE40197F1F700C0000023
S113022029988BB18F708BB98BB1C295C07FC82BC5
S1130230CBB9289A2A98299A8FE19EE40197F1F77D
S113024000C000002998CF9108950F931F93CF9376
S1130250DF93D82FC62FFA014081442361F08F0128
S11302600F5F1F4F6C2F8D2FC7DFCF5FF8014191B8
S11302708F014111F7CFDF91CF911F910F91089515
S11302809BB19F709BB99BB1282F207F922B9BB968
S1130290289A2A98299AEFE1FEE43197F1F700C0F1
S11302A0000029989BB19F709BB99BB18295807F78
S11302B0892B8BB9289A2A98299A8FE19EE4019771
S11302C0F1F700C00000299808950F931F93CF936E
S11302D0DF938B01880F880F880F805C35DFE8017E
S11302E02196085F1F4F8991CBDFC017D107D9F73B
S11302F080E82ADFDF91CF911F910F9108950F932A
S11303001F93CF93DF93CDB7DEB72A970FB6F89438
S1130310DEBF0FBECDBF8AE0E0E9F1E0DE01119659
S113032001900D928A95E1F78CE00EDFAE014F5FEC
S11303305F4F60E181E089DF00E210E088E104DFE3
S11303402FEF82E597E0215080409040E1F700C014
S113035000000150110991F74CDF2DDF68E871E0CE
S113036081E0B3DF60E871E082E0AFDF68E771E06D
S113037083E0ABDF60E771E084E0A7DF41E061E0A8
S113038081E03ADF2FEF83EF91E0215080409040ED
S1130390E1F700C0000042E062E081E02DDF2FEFD2
S11303A083EF91E0215080409040E1F700C00000CD
S11303B043E063E081E020DF2FEF83EF91E0215001
S11303C080409040E1F700C0000044E064E081E038
S11303D013DF2FEF83EF91E0215080409040E1F74D
S11303E000C0000041E065E081E006DF2FEF83EF0D
S11303F091E0215080409040E1F700C0000042E0CD
S113040066E081E0F9DE2FEF83EF91E02150804038
S11304109040E1F700C0000043E067E081E0ECDEDB
S11304202FEF83EF91E0215080409040E1F700C02E
S1130430000044E068E081E0DFDE2FEF83EF91E02D
S1130440215080409040E1F700C0000041E069E0A5
S113045081E0D2DE2FEF83EF91E021508040904085
S1130460E1F700C0000042E06AE081E0C5DE2FEF62
S113047083EF91E0215080409040E1F700C00000FC
S113048043E06BE081E0B8DE2FEF83EF91E0215091
S113049080409040E1F700C0000044E06CE081E05F
S11304A0ABDE2FEF83EF91E0215080409040E1F7E5
S11304B000C0000041E06DE081E09EDE2FEF83EF9D
S11304C091E0215080409040E1F700C0000042E0FC
S11304D06EE081E091DE2FEF83EF91E021508040C8
S11304E09040E1F700C0000043E06FE081E084DE6B
S11304F02FEF83EF91E0215080409040E1F700C05E
S1130500000044E060E181E077DE2FEF83EF91E0CB
S1130510215080409040E1F700C0000041E061E0DC
S113052082E06ADE2FEF83EF91E02150804090401B
S1130530E1F700C0000042E062E082E05DDE2FEF00
S113054083EF91E0215080409040E1F700C000002B
S113055043E063E082E050DE2FEF83EF91E021502F
S113056080409040E1F700C0000044E064E082E095
S113057043DE2FEF83EF91E0215080409040E1F77C
S113058000C0000041E065E082E036DE2FEF83EF3B
S113059091E0215080409040E1F700C0000042E02B
S11305A066E082E029DE2FEF83EF91E02150804066
S11305B09040E1F700C0000043E067E082E01CDE09
S11305C02FEF83EF91E0215080409040E1F700C08D
S11305D0000044E068E082E00FDE2FEF83EF91E05B
S11305E0215080409040E1F700C0000041E069E004
S11305F082E002DE2FEF83EF91E0215080409040B3
S1130600E1F700C0000042E06AE082E0F5DD2FEF90
S113061083EF91E0215080409040E1F700C000005A
S113062043E06BE082E0E8DD2FEF83EF91E02150BF
S113063080409040E1F700C0000044E06CE082E0BC
S1130640DBDD2FEF83EF91E0215080409040E1F714
S113065000C0000041E06DE082E0CEDD2FEF83EFCB
S113066091E0215080409040E1F700C0000042E05A
S11306706EE082E0C1DD2FEF83EF91E021508040F6
S11306809040E1F700C0000043E06FE082E0B4DD99
S11306902FEF83EF91E0215080409040E1F700C0BC
S11306A0000044E060E182E0A7DD2FEF87EA91E6F5
S11306B0215080409040E1F700C000002A960FB618
S11306C0F894DEBF0FBECDBFDF91CF911F910F9184
S11306D008950F931F93CF93DF93CDB7DEB7A19700
S11306E00FB6F894DEBF0FBECDBF83E1EAE9F1E0B7
S11306F0DE01119601900D928A95E1F78CE024DDDC
S1130700AE014F5F5F4F60E181E09FDD02E210E0E8
S113071088E11ADD2FEF88E596E021508040904073
S1130720E1F700C000000150110991F762DD43DDDB
S11307308EE0EDEAF1E0DE01549601900D928A9587
S1130740E1F7AE014C5E5F4F62E081E07EDD2FEFAA
S113075083E294EF215080409040E1F700C0000014
S1130760A1960FB6F894DEBF0FBECDBFDF91CF9137
S11307701F910F9108950F931F93CF93DF93CDB7DC
S1130780DEB7CF55D1090FB6F894DEBF0FBECDBF8B
S113079081E1EBEBF1E0DE01119601900D928A9577
S11307A0E1F78CE0D1DCAE014F5F5F4F61E081E0A7
S11307B04CDD2FEF8BE792E9215080409040E1F728
S11307C000C0000016DD8CE0BFDCF5DC8EE0ECEC54
S11307D0F1E0DE01529601900D928A95E1F78CE0EA
S11307E0B3DCAE014E5E5F4F66E181E02EDD02E2D6
S11307F010E08CE1A9DC2FEF83EC99E021508040DC
S11308009040E1F700C000000150110991F7F1DCBC
S11308108CE09ADCD0DC68E671E081E056DD60E6CD
S113082071E082E052DD68E571E083E04EDD60E571
S113083071E084E04ADD68E471E085E046DD60E46F
S113084071E086E042DD68E371E087E03EDD41E08F
S113085068E082E0D1DC42E069E082E0CDDC43E0A4
S113086069E081E0C9DC44E063E082E0C5DC45E0A6
S113087062E082E0C1DC46E061E082E0BDDC13E0DE
S1130880B8DC41E068E082E0B7DC42E069E082E0A5
S1130890B3DC43E069E081E0AFDC45E0612F82E056
S11308A0ABDC6FEF610F46E082E0A6DC6EEF610F18
S11308B047E082E0A1DC2FEF81EE94E021508040FC
S11308C09040E1F700C000001F5F1631C9F691DCCB
S11308D041E067E082E090DC42E06AE082E08CDCA8
S11308E044E06BE082E088DC2FEF87EA91E6215058
S11308F080409040E1F700C000007BDC8CE024DC09
S11309005ADC82E1EAEDF1E0DE01909601900D926D
S11309108A95E1F78CE018DCAE01405E5F4F66E13A
S113092081E093DC02E210E08CE10EDC2FEF83EC3B
S113093099E0215080409040E1F700C00000015050
S1130940110991F756DC8CE0FFDB35DC60E371E0E4
S113095081E0BBDC68E271E082E0B7DC60E271E078
S113096083E0B3DC68E171E084E0AFDC60E171E076
S113097085E0ABDC68E071E086E0A7DC60E071E074
S113098087E0A3DC88E0ECEEF1E0DE01D296019092
S11309900D928A95E1F78AE0E4EFF1E0DE01DA9660
S11309A001900D928A95E1F78BE0EEEFF1E0DE0124
S11309B0AC5BBF4F01900D928A95E1F78CE0C4DBEC
S11309C0AE014E5C5F4F66E181E03FDC45E06DE1E6
S11309D081E012DC02E210E088E1B6DB2FEF81EE69
S11309E094E0215080409040E1F700C000000150A5
S11309F0110991F7FEDB8CE0A7DBAE01465C5F4F8B
S1130A0066E182E022DC46E06FE182E0F5DB02E2AF
S1130A1010E08CE199DB2FEF81EE94E021508040CF
S1130A209040E1F700C000000150110991F7E1DBAB
S1130A308CE08ADBAE014C5B5F4F66E181E005DC54
S1130A4041E060E281E0D8DB02E210E088E17CDB97
S1130A502FEF81EE94E0215080409040E1F700C0F8
S1130A6000000150110991F7C4DB8CE06DDBA3DBBE
S1130A7004E0BFDB45E061E081E0BEDB45E061E02E
S1130A8082E0BADB46E062E081E0B6DB46E062E0A9
S1130A9082E0B2DB11E044E063E081E0ADDB412FB2
S1130AA063E082E0A9DB2FEF81EE94E021508040E7
S1130AB09040E1F700C000001F5F143061F747E089
S1130AC0602F81E099DB47E0602F82E095DB2FEF18
S1130AD083EC99E0215080409040E1F700C0000091
S1130AE00F5F023109F0C5CF87E595E461969FAFAA
S1130AF08EAF619762961FAE629787E599E464961C
S1130B009FAF8EAF64978EE490E066969FAF8EAFF2
S1130B1066978CE019DBAE01415B5F4F6DE081E0CD
S1130B2094DBAE014E5A5F4F6DE082E08EDB2FEF17
S1130B3087EA91E6215080409040E1F700C0000030
S1130B4058DB8AE0E9E0F2E0DE01AA5ABF4F0190E7
S1130B500D928A95E1F78CE0F7DAAE014A5A5F4FBD
S1130B6064E081E072DB2FEF87EA91E62150804058
S1130B709040E1F700C00000C15ADF4F0FB6F8946F
S1130B80DEBF0FBECDBFDF91CF911F910F910895AE
S1130B9087DAFFDA2EDB8CE0D7DA0DDBB0DB29DB7A
S1130BA08CE0D2DA08DB95DD24DB8CE0CDDA03DBE4
S10F0BB0E2DD80E090E00895F894FFCFAF
S1130BBC00110E0E0E110000000C0C1F1D1F131340
S1130BCC00040E0E0E1F1B1B00040E1F1F1F1F0EF6
S1130BDC000A0A1F1F1E00000008081F1F1E000029
S1130BEC0014141F1F1E000000000C0F0F0F0C002C
S1130BFC0000001F1F1F000000080C1E1F1E0C0805
S1130C0C000000020606081F000117171718101021
S1130C1C000F1F1F1F1F1E1C001E1F1F1F1F0F074F
S1130C2C0000000001021C00000000001008070076
S1130C3C001C020100000000000708100000000066
S1130C4C53696E65207761766500537065636961DD
S1130C5C6C20436861726163746572730021204077
S1130C6C2023202420252026202A00416464697432
S1130C7C696F6E616C202070617274004152524F26
S1130C8C572D2D3E4150504C4500466967687420E1
S1130C9C585820436F7669642D3139004E616D616B
S1130CAC737465005374617920486F6D65005761E6
S1130CBC73682048616E6473005468616E6B2059CC
S1070CCC6F7500003C
S9030000FC
