S01D00006C696E655F666F6C6C6F775F706174685F706C616E2E7372656357
S11300000C9434000C9451000C9451000C94510045
S11300100C9451000C9451000C9451000C94510018
S11300200C9451000C9451000C9451000C94510008
S11300300C9451000C9451000C9451000C945100F8
S11300400C9451000C9451000C9451000C945100E8
S11300500C9451000C9451000C9451000C945100D8
S11300600C9451000C94510011241FBECFEFD8E022
S1130070DEBFCDBF11E0A0E0B1E0EAE5F4E102C0EB
S113008005900D92AE31B107D9F721E0AEE1B1E0B0
S113009001C01D92A234B207E1F70E94CE080C946D
S11300A02B0A0C94000084B1877E84B9389885B1FA
S11300B0886185B9409A08958AB1846D8AB98BB1F3
S11300C08B728BB908958AB188628AB98BB18862C0
S11300D08BB9089584B5816284BD84B58D7E84BD59
S11300E0E0EBF0E080818162808380818D7E80837B
S11300F085B5836085BD85B5837F85BDE1EBF0E083
S11301008081846080838081847F808318BC109286
S1130110B40008958BB184688BB98BB18F7A8BB995
S113012008958BB180658BB98BB18B778BB90895AA
S11301308BB18B728BB908958BB184648BB98BB1FD
S11301408F768BB9089523B12093410193B1909395
S1130150400186B180933F0123FF04C021E0209336
S11301603E0102C010923E0194FF04C091E09093BE
S11301703D0102C010923D0180FF04C081E08093E4
S11301803C01089510923C01089580913E0188231A
S1130190D9F080913D018823B9F080913C018823F6
S11301A099F020912001309121012630310561F42C
S11301B020912201309123012630310529F40E9437
S11301C098001092020180E00895CF93C1E0B1C37A
S11301D080912201909123018130910509F091C011
S11301E00E94A30080913E01882371F180913D011A
S11301F08111AFC390913C019111B0C30E94910051
S11302008FE494E10197F1F700C000000E949C0084
S11302108FE193E00197F1F700C000000E9498007D
S113022088C30E9491008FEA94E00197F1F700C01F
S113023000000E949C008FEA94E00197F1F700C04F
S113024000000E94980075C380913D01811189C30B
S113025090913C01992309F489C30E948A008FEB91
S113026092E10197F1F700C000000E949C008FEA20
S113027094E00197F1F700C000000E94980059C370
S11302800E948A008FEA94E00197F1F700C0000011
S11302900E949C008FEA94E00197F1F700C00000EF
S11302A00E94980046C380913C01811142C30E9480
S11302B08A008FE891E00197F1F700C000000E94E6
S11302C09C008FE193E00197F1F700C000000E94C9
S11302D091008FE891E00197F1F700C0000036C368
S11302E080913C01882309F424C30E949C009FEF61
S11302F02DE882E1915020408040E1F700C00000E9
S113030025C38330910509F0F9C00E94A3008091B0
S11303103E01882371F180913D0181112BC390919D
S11303203C0191112CC30E9491008FE39CE9019739
S1130330F1F700C000000E949C008FE39CE9019744
S1130340F1F700C000000E949800F3C20E949100DF
S11303508FE19EE40197F1F700C000000E949C0029
S11303608FE39CE90197F1F700C000000E94980018
S1130370E0C280913D01811105C390913C01992314
S113038009F405C30E948A008FE39CE90197F1F701
S113039000C000000E949C008FE39CE90197F1F7E4
S11303A000C000000E949800C4C20E948A008FE12D
S11303B09EE40197F1F700C000000E949C008FE3C7
S11303C09CE90197F1F700C000000E949800B1C2B7
S11303D080913C018111ADC20E9498009FEF23EDF2
S11303E080E3915020408040E1F700C000008091FC
S11303F0030190910401853091050CF09AC280FFAD
S113040036C00E9491009FEF27EA81E69150204078
S11304108040E1F700C000000E949C009FEF25E1AE
S113042086E2915020408040E1F700C000000E9425
S11304308A009FEF27EA81E6915020408040E1F74F
S113044000C000000E949C009FEF2FE087E29150C3
S113045020408040E1F700C00000809103019091AA
S113046004010196909304018093030162C20E94E7
S11304708A009FEF27EA81E6915020408040E1F70F
S113048000C000000E949C009FEF2DE282E2915088
S113049020408040E1F700C000000E9491009FEFDF
S11304A027EA81E6915020408040E1F700C0000037
S11304B00E949C009FEF2FE087E2915020408040F3
S11304C0E1F700C0000080910301909104010196BE
S11304D090930401809303012CC280913C018823F2
S11304E009F427C20E949C009FEF29E688E19150FD
S11304F020408040E1F700C0000028C2853091050B
S113050009F0F3C00E94A30080911E01882309F41E
S113051072C080913E01811130C080913D018823D9
S113052009F439C290913C01992309F43AC20E941A
S113053091008FE39CE90197F1F700C000000E944D
S11305409C008FE39CE90197F1F700C000000E9432
S1130550980048C00E9491008FE19EE40197F1F752
S113056000C000000E949C008FE39CE90197F1F712
S113057000C000000E94980035C080913D0188238E
S113058009F412C280913C0181112CC00E948A009E
S11305908FE39CE90197F1F700C000000E949C00E2
S11305A08FE39CE90197F1F700C000000E949800D6
S11305B019C00E948A008FE19EE40197F1F700C000
S11305C000000E949C008FE39CE90197F1F700C0B2
S11305D000000E94980006C080913C01811102C075
S11305E010921E010E949C008FE39CE90197F1F791
S11305F000C000009EC180913E01882371F180916A
S11306003D018111D6C190913C019111D7C10E9445
S113061091008FE39CE90197F1F700C000000E946C
S11306209C008FE39CE90197F1F700C000000E9451
S113063098007FC10E9491008FE19EE40197F1F739
S113064000C000000E949C008FE39CE90197F1F731
S113065000C000000E9498006CC180913D0181118E
S1130660B1C180913C01882309F463C10E948A00CE
S11306708FE39CE90197F1F700C000000E949C0001
S11306808FE39CE90197F1F700C000000E949800F5
S113069050C10E948A008FE19EE40197F1F700C0E7
S11306A000000E949C008FE39CE90197F1F700C0D1
S11306B000000E9498003DC180913C01882309F408
S11306C038C1C0931E0135C180913C01882309F4CF
S11306D030C10E949C009FEF2DE882E191502040A0
S11306E08040E1F700C0000031C1069709F091C0D5
S11306F00E94A30080913E01882371F180913D0105
S113070081116DC190913C01911165C10E949100CC
S11307108FE39CE90197F1F700C000000E949C0060
S11307208FE39CE90197F1F700C000000E94980054
S113073000C10E9491008FE19EE40197F1F700C08F
S113074000000E949C008FE39CE90197F1F700C030
S113075000000E949800EDC080913D01811148C1C4
S113076090913C01992309F43FC10E948A008FE3D0
S11307709CE90197F1F700C000000E949C008FE300
S11307809CE90197F1F700C000000E949800D1C0D5
S11307900E948A008FE19EE40197F1F700C00000F7
S11307A00E949C008FE39CE90197F1F700C00000D0
S11307B00E949800BEC080913C018111BAC00E9481
S11307C08A008FE39CE90197F1F700C000000E94C2
S11307D09C008FE19EE40197F1F700C000000E94A5
S11307E091008FE39CE90197F1F700C00000AEC0CF
S11307F080913C01882309F49CC00E949C009FEFD7
S113080021E884E1915020408040E1F700C00000DD
S11308109DC00E94A30080913E01882371F18091C4
S11308203D018111EFC090913C019111E7C00E94FC
S113083091008FE39CE90197F1F700C000000E944A
S11308409C008FE39CE90197F1F700C000000E942F
S113085098006FC00E9491008FE19EE40197F1F728
S113086000C000000E949C008FE39CE90197F1F70F
S113087000C000000E9498005CC080913D0181117D
S1130880C6C090913C01992309F4C7C00E948A0014
S11308908FE39CE90197F1F700C000000E949C00DF
S11308A08FE39CE90197F1F700C000000E949800D3
S11308B040C00E948A008FE19EE40197F1F700C0D6
S11308C000000E949C008FE39CE90197F1F700C0AF
S11308D000000E9498002DC080913C01811129C024
S11308E00E948A008FE39CE90197F1F700C00000A1
S11308F00E949C008FE19EE40197F1F700C0000084
S11309000E9491008FE39CE90197F1F700C0000079
S11309101DC080913C01882361F00E949C009FEFE0
S113092026E181E1915020408040E1F700C00000C1
S11309300DC080913E0181114BCC80913D018823F3
S113094009F446CC80913C01811142CC0E949C0068
S113095068C080913C018111C3CC63CC882349F3E6
S1130960BFCC80913C01882321F38ACC882309F4ED
S11309709ACCDFCF80913C018111AFCDE7CC8823A5
S1130980C1F2ABCD80913C01882399F20ECD88232E
S113099009F41ECDCECF80913C01882309F422CEE8
S11309A0D9CD811119CE1ECE80913C0181111ACE70
S11309B000CE90913C0191110BC03CCE882309F4E8
S11309C07BCE82CE80913C01882309F4B2CF61CEE4
S11309D081117ACEAECF882309F4ABCF09CF8091B1
S11309E03C01811105CFA5CE882309F4E4CEA1CF23
S11309F080913C01882309F49CCFCACE882309F452
S1130A0098CF87CF80913C01811183CF23CF8091F0
S1130A103C01882309F48DCF4CCF882309F45CCFA3
S1130A2088CFCF9108958091220190912301813044
S1130A30910509F070C0E0912001F0912101EE0FC1
S1130A40FF1FEE0FFF1FEC5DFE4F2091050130915B
S1130A5006014091070150910801608171818281F2
S1130A6093810E94260A18165CF50E948A002FEFD3
S1130A7085EC9CE5215080409040E1F700C00000E7
S1130A800E949800109201011092000181E080936D
S1130A901F018091220190912301019690932301DB
S1130AA0809322010E949C002FEF83ED90E321505C
S1130AB080409040E1F700C000000E949800089533
S1130AC00E9491002FEF85EC9CE5215080409040DE
S1130AD0E1F700C000000E94980081E080930101CA
S1130AE01092000180931F018091220190912301B3
S1130AF0019690932301809322010E949C002FEF82
S1130B0083ED90E3215080409040E1F700C0000065
S1130B100E94980008958330910509F070C0E09117
S1130B202001F0912101EE0FFF1FEE0FFF1FEC5D7E
S1130B30FE4F20910501309106014091070150912B
S1130B40080160817181828193810E94260A1816AE
S1130B505CF50E948A002FEF8BE69BE621508040D3
S1130B609040E1F700C000000E949800109201013B
S1130B701092000181E080931F01809122019091E5
S1130B802301019690932301809322010E949C00EB
S1130B902FEF83ED90E3215080409040E1F700C0B7
S1130BA000000E94980008950E9491002FEF8BE6A8
S1130BB09BE6215080409040E1F700C000000E9475
S1130BC0980081E0809301011092000180931F013D
S1130BD080912201909123010196909323018093A7
S1130BE022010E949C002FEF83ED90E3215080406E
S1130BF09040E1F700C000000E94980008958430FE
S1130C00910509F070C0E0912001F0912101EE0FEF
S1130C10FF1FEE0FFF1FEC5DFE4F20910501309189
S1130C200601409107015091080160817181828120
S1130C3093810E94260A18165CF50E948A002FEF01
S1130C408DE490E7215080409040E1F700C000001F
S1130C500E949800109201011092000181E080939B
S1130C601F01809122019091230101969093230109
S1130C70809322010E949C002FEF83ED90E321508A
S1130C8080409040E1F700C000000E949800089561
S1130C900E9491002FEF8DE490E721508040904016
S1130CA0E1F700C000000E94980081E080930101F8
S1130CB01092000180931F018091220190912301E1
S1130CC0019690932301809322010E949C002FEFB0
S1130CD083ED90E3215080409040E1F700C0000094
S1130CE00E9498000895059709F070C0E0912001D2
S1130CF0F0912101EE0FFF1FEE0FFF1FEC5DFE4F81
S1130D00209105013091060140910701509108019D
S1130D1060817181828193810E94AC0988235CF592
S1130D200E9491002FEF8AEF98E621508040904076
S1130D30E1F700C000000E94980081E08093010167
S1130D401092000180931F01809122019091230150
S1130D50019690932301809322010E949C002FEF1F
S1130D6083ED90E3215080409040E1F700C0000003
S1130D700E94980008950E948A002FEF8AEF98E657
S1130D80215080409040E1F700C000000E9498008C
S1130D90109201011092000181E080931F01809163
S1130DA022019091230101969093230180932201C3
S1130DB00E949C002FEF83ED90E3215080409040EF
S1130DC0E1F700C000000E9498000895E09120011E
S1130DD0F0912101EE0FFF1FEE0FFF1FEC5DFE4FA0
S1130DE020910501309106014091070150910801BD
S1130DF060817181828193810E94260A18165CF5B4
S1130E000E948A002FEF8AEF98E62150804090409C
S1130E10E1F700C000000E949800109201011092B6
S1130E20000181E080931F018091220190912301B0
S1130E30019690932301809322010E949C002FEF3E
S1130E4083ED90E3215080409040E1F700C0000022
S1130E500E94980008950E9491002FEF8AEF98E66F
S1130E60215080409040E1F700C000000E949800AB
S1130E7081E0809301011092000180931F01809111
S1130E8022019091230101969093230180932201E2
S1130E900E949C002FEF83ED90E32150804090400E
S1130EA0E1F700C000000E94980008958F929F927D
S1130EB0AF92BF92CF92DF92EF92FF928091220184
S1130EC090912301019709F0AEC080912001909187
S1130ED02101892B09F0A7C020E030E040E950E46B
S1130EE060910501709106018091070190910801BC
S1130EF00E94AC09811197C0C0902401D0902501B3
S1130F00E0902601F090270120E030E040E950E431
S1130F10C701B6010E94AC0988236CF480E090E01C
S1130F20A0E8B0E48093050190930601A093070123
S1130F30B09308010CC080E090E0A0EAB0E4809394
S1130F40050190930601A0930701B0930801209135
S1130F500501309106014091070150910801C70134
S1130F60B6010E94AC09811152C08091010188230D
S1130F7039F10E948A002FEF8BE69BE621508040D6
S1130F809040E1F700C000000E9498000E949C007D
S1130F902FEF83ED90E3215080409040E1F700C0B3
S1130FA000008091200190912101019690932101EC
S1130FB08093200110921F0181E080930001E5C01D
S1130FC00E9491002FEF8BE69BE6215080409040D9
S1130FD0E1F700C000000E9498000E949C002FEFDF
S1130FE083ED90E3215080409040E1F700C0000081
S1130FF08091200190912101019690932101809389
S1131000200110921F0181E080930001BEC00E9464
S11310109C002FEF83ED90E3215080409040E1F756
S113102000C00000B2C0E0912001F0912101EE0F58
S1131030FF1FEE0FFF1FEC5DFE4FC080D180E280EA
S1131040F3808090050190900601A0900701B09074
S11310500801A5019401C701B6010E94AC098823C7
S11310608CF420E030E040E85FE3C501B4010E9465
S11310703F096093050170930601809307019093E3
S1131080080118C0A5019401C701B6010E94260AEF
S1131090181684F420E030E040E85FE3C501B401B1
S11310A00E94400960930501709306018093070133
S11310B090930801209105013091060140910701A8
S11310C050910801C701B6010E94AC09811152C0B8
S11310D080910101882339F10E948A002FEF8BE669
S11310E09BE6215080409040E1F700C000000E9440
S11310F098000E949C002FEF83ED90E321508040E4
S11311009040E1F700C000008091200190912101FE
S11311100196909321018093200110921F0181E098
S11311208093000132C00E9491002FEF8BE69BE672
S1131130215080409040E1F700C000000E949800D8
S11311400E949C002FEF83ED90E32150804090405B
S1131150E1F700C0000080912001909121010196E7
S1131160909321018093200110921F0181E08093CC
S113117000010BC00E949C002FEF83ED90E32150EF
S113118080409040E1F700C00000FF90EF90DF90B6
S1131190CF90BF90AF909F908F9008950E9453007E
S11311A00E945C000E9463000E946A0082E38093B4
S11311B0B40088BDE9E0F1E0A4E2B1E08DE191E0A2
S11311C041915191619171914D935D936D937D9393
S11311D0E817F907A9F720E030E040E950E460910E
S11311E030017091310180913201909133010E945C
S11311F0260A18166CF480E090E0A0E8B0E480932E
S1131200380190933901A0933A01B0933B0130C067
S113121080E090E0A0EAB0E4809338019093390133
S1131220A0933A01B0933B0123C00E94A3000E9403
S1131230E5002FEF80E792E0215080409040E1F7F5
S113124000C000000E9498000E94C500882339F065
S113125080910001882319F00E94130509C00E949F
S1131260C500882329F080911F0181110E9456072F
S1131270809102018111D9CF80E090E00895505807
S1131280BB27AA270E9457090C94EC090E94DE0987
S113129038F00E94E50920F039F49F3F19F426F450
S11312A00C94DB090EF4E095E7FB0C94D509E92FC7
S11312B00E94FD0958F3BA1762077307840795075C
S11312C020F079F4A6F50C941F0A0EF4E0950B2E89
S11312D0BA2FA02D0B01B90190010C01CA01A00184
S11312E01124FF27591B99F0593F50F4503E68F1DF
S11312F01A16F040A22F232F342F4427585FF3CF20
S1131300469537952795A795F0405395C9F77EF4F0
S11313101F16BA0B620B730B840BBAF09150A1F039
S1131320FF0FBB1F661F771F881FC2F70EC0BA0FBF
S1131330621F731F841F48F4879577956795B79547
S1131340F7959E3F08F0B0CF9395880F08F0992742
S1131350EE0F9795879508950E94B10908F481E0EE
S11313600895990F0008550FAA0BE0E8FEEF161632
S11313701706E807F907C0F012161306E407F50785
S113138098F0621B730B840B950B39F40A2661F0F9
S1131390232B242B252B21F408950A2609F4A1409C
S11313A0A6958FEF811D811D089597F99F6780E8A9
S11313B070E060E008959FEF80EC089500240A94A3
S11313C01616170618060906089500240A9412161C
S11313D01306140605060895092E0394000C11F44F
S11313E0882352F0BB0F40F4BF2B11F460FF04C0FC
S11313F06F5F7F4F8F4F9F4F089557FD9058440F55
S1131400551F59F05F3F71F04795880F97FB991F5F
S113141061F09F3F79F0879508951216130614061C
S1131420551FF2CF4695F1DF08C0161617061806A9
S1131430991FF1CF86957105610508940895E89484
S1131440BB2766277727CB0197F908950E94B10936
S10D145008F48FEF0895F894FFCF1D
S113145A010101010000009040000000400000402A
S111146A400000C04000000040000080400030
S9030000FC
